:100000000C942A000C9447000C9447000C94470071
:100010000C9447000C9447000C9447000C94470044
:100020000C9447000C9447000C9447000C94470034
:100030000C9447000C9447000C9447000C94470024
:100040000C9447000C9447000C9447000C94470014
:100050000C94470011241FBECFE5D8E0DEBFCDBF12
:1000600012E0A0E6B0E0EEECF4E102C005900D92E3
:10007000AC37B107D9F722E0ACE7B2E001C01D927E
:10008000AA38B207E1F70E9452040C94650A0C9456
:10009000000087B1806487B987B18F7787B987B14E
:1000A0008F7D87B986B1806886B986B18F7D86B924
:1000B00086B1816086B986B1826086B986B1846076
:1000C00086B9089597B1907E97B997B1892B87B972
:1000D00086B1806486B9349BFECF86B1806486B9D0
:1000E00084B195B1FB01918380830895813011F132
:1000F00030F08230D1F1833009F452C0089541309C
:1001000059F42AB381E090E002C0880F991F6A95E4
:10011000E2F7822B8ABB089541115CC02AB381E0CB
:1001200090E002C0880F991F6A95E2F780958223BC
:100130008ABB0895413059F427B381E090E002C0B2
:10014000880F991F6A95E2F7822B87BB08954111AA
:1001500041C027B381E090E002C0880F991F6A95E3
:10016000E2F78095822387BB0895413059F424B388
:1001700081E090E002C0880F991F6A95E2F7822B18
:1001800084BB0895411126C024B381E090E002C0F1
:10019000880F991F6A95E2F78095822384BB0895A2
:1001A000413059F421B381E090E002C0880F991FDB
:1001B0006A95E2F7822B81BB089541110BC021B3F0
:1001C00081E090E002C0880F991F6A95E2F7809560
:1001D000822381BB0895813011F130F08230D1F15A
:1001E000833009F452C00895413059F42BB381E0B3
:1001F00090E002C0880F991F6A95E2F7822B8BBBB3
:10020000089541115CC02BB381E090E002C0880FDB
:10021000991F6A95E2F7809582238BBB0895413040
:1002200059F428B381E090E002C0880F991F6A95C5
:10023000E2F7822B88BB0895411141C028B381E0C9
:1002400090E002C0880F991F6A95E2F7809582239B
:1002500088BB0895413059F425B381E090E002C095
:10026000880F991F6A95E2F7822B85BB089541118B
:1002700026C025B381E090E002C0880F991F6A95DF
:10028000E2F78095822385BB0895413059F422B36B
:1002900081E090E002C0880F991F6A95E2F7822BF7
:1002A00082BB089541110BC022B381E090E002C0EF
:1002B000880F991F6A95E2F78095822382BB089583
:1002C000813089F028F08230C9F0833011F108952F
:1002D00089B390E002C0959587956A95E2F78170A1
:1002E000FA018083089586B390E002C095958795C2
:1002F0006A95E2F78170FA018083089583B390E0F4
:1003000002C0959587956A95E2F78170FA0180831E
:10031000089580B390E002C0959587956A95E2F7BD
:100320008170FA0180830895813089F028F082304D
:10033000C9F0833011F108952BB381E090E002C041
:10034000880F991F6A95E2F7822B8BBB089528B31B
:1003500081E090E002C0880F991F6A95E2F7822B36
:1003600088BB089525B381E090E002C0880F991FF3
:100370006A95E2F7822B85BB089522B381E090E075
:1003800002C0880F991F6A95E2F7822B82BB0895FD
:100390000E94540983EF91E00E9478090E946E093F
:1003A00008950E94540989EF90E00E9478090E9404
:1003B0006E0908950E947B0908951F93CF93DF93E0
:1003C000D82FC62F192F10650E948A09812F0E94ED
:1003D000AD098D2F0E94D3098C2F0E94D3090E9452
:1003E000A6098FE19EE40197F1F700C00000DF91BC
:1003F000CF911F910895CF93DF93D82FC92FC06558
:100400000E948A098C2F0E94AD098D2F0E94D3096A
:100410000E9498098C2F0E94C0090E94DF09C82FF2
:100420000E94A6098FE19EE40197F1F700C0000049
:100430008C2FDF91CF91089541E064E080E00E942D
:10044000760041E065E080E00E94760041E066E0F1
:1004500080E00E94760041E067E080E00E94760044
:1004600040E063E082E00E94760040E064E082E0E9
:100470000E94760040E065E082E00E94760040E065
:1004800066E082E00E94760063E082E00E949401D0
:1004900064E082E00E94940165E082E00E949401A1
:1004A00066E082E00E94940108957F928F929F926D
:1004B000AF92BF92CF92DF92EF92FF920F931F9372
:1004C000CF93DF93CDB7DEB769970FB6F894DEBF51
:1004D0000FBECDBF5C0124E02A8395E09B8386E0BC
:1004E0008C8337E03D8333E03E832F839887898771
:1004F00080E1E0E6F0E0DE011A9601900D928A9527
:10050000E1F7712C912C4DC0C92CD12CE2E0F0E028
:10051000EC0FFD1FEC0DFD1D808040E0682D80E09C
:100520000E94EB0010E032C0E12EF12CE6E0F0E09A
:10053000EC0FFD1FEE0DFF1D0081AE014F5F5F4F01
:10054000602F82E00E946001898181111EC0EE0C43
:10055000FF1CEE0CFF1C81E090E08C0F9D1FE80E4D
:10056000F91EF701EC0DFD1D8185F501808307C0A3
:10057000AE014F5F5F4F602F82E00E946001898172
:100580008823B1F37724739403C01F5F143060F2A3
:10059000F1E07F1651F041E0682D80E00E94EB0011
:1005A000939483E0891508F0AFCF69960FB6F8945D
:1005B000DEBF0FBECDBFDF91CF911F910F91FF9096
:1005C000EF90DF90CF90BF90AF909F908F907F90F3
:1005D0000895CF93C82F80FF06C041E064E081E01A
:1005E0000E94EB0005C040E064E081E00E94EB0067
:1005F000C1FF06C041E065E081E00E94EB0005C05C
:1006000040E065E081E00E94EB00C2FF06C041E0EF
:1006100066E081E00E94EB0005C040E066E081E01A
:100620000E94EB00C3FF06C041E067E081E00E944A
:10063000EB0005C040E067E081E00E94EB00CF9155
:100640000895CF93C82F40E061E081E00E94EB0065
:1006500040E062E081E00E94EB008C2F82958F7079
:100660000E94E90241E063E081E00E94EB008FE933
:100670009FE00197F1F700C0000040E063E081E0F7
:100680000E94EB008C2F0E94E90241E063E081E0D0
:100690000E94EB008FE99FE00197F1F700C0000096
:1006A00040E063E081E00E94EB00CF91089541E0DB
:1006B00064E081E00E94760041E065E081E00E9414
:1006C000760041E066E081E00E94760041E067E06C
:1006D00081E00E94760041E061E081E00E947600C6
:1006E00041E062E081E00E94760041E063E081E069
:1006F0000E9476002FE785EB91E0215080409040EA
:10070000E1F700C0000040E061E081E00E94EB0002
:1007100040E062E081E00E94EB0082E00E94E9029A
:1007200041E063E081E00E94EB008FE99FE00197E8
:10073000F1F700C0000040E063E081E00E94EB00C0
:1007400088E20E94210390EF9A95F1F78FE00E94D2
:10075000210320EF2A95F1F781E00E9421038FE326
:100760009FE10197F1F700C0000086E00E9421039D
:100770000895CF93C82F41E061E081E00E94EB0033
:1007800040E062E081E00E94EB008C2F82958F7048
:100790000E94E90241E063E081E00E94EB008FE902
:1007A0009FE00197F1F700C0000040E063E081E0C6
:1007B0000E94EB008C2F0E94E90241E063E081E09F
:1007C0000E94EB008FE99FE00197F1F700C0000065
:1007D00040E063E081E00E94EB00CF9108950F9329
:1007E0001F93CF938C01C0E003C00E94B903CF5F79
:1007F000F801EC0FF11D80818111F7CFCF911F918E
:100800000F91089581E00E9421038FE39FE10197FA
:10081000F1F700C000000895813039F4603168F4C8
:1008200080E8860F0E9421030895823031F4603100
:1008300020F480EC860F0E9421030895CF93DF936C
:10084000C82FD62F41E00E94760041E06D2F8C2FFB
:100850000E94EB00DF91CF910895CF93DF93C82FD3
:10086000D62F41E00E94760040E06D2F8C2F0E9431
:10087000EB00DF91CF910895DC0190E00DC0292FAE
:1008800030E0FD01E20FF31F5081FB01E20FF31F87
:100890002081521305C09F5F941788F381E008956B
:1008A00080E008950F931F93CF93DF9300D000D083
:1008B000CDB7DEB70E9457030E941C020E94DA01E6
:1008C00040E061E080E00E9476000E94490041E043
:1008D00061E082E00E94760040E062E082E00E94F7
:1008E000760080E790E00E94EF0387EA91E60197A7
:1008F000F1F700C0000060E082E00E940C0481E893
:1009000090E00E94EF0387EA91E60197F1F700C0BB
:1009100000000E94020487EA91E60197F1F700C007
:1009200000008DE890E00E94EF0310927E0204C068
:100930008EE792E00E94550280917E028823C1F3E7
:10094000823309F062C381E190E00E94FB018823B9
:1009500009F45FC08DE990E00E94EF0383EC99E019
:100960000197F1F700C000000E94020483EA90E0C2
:100970000E94EF0360E082E00E940C048FEF898305
:100980008A838B838C8310E028C010927E0204C07F
:100990008EE792E00E94550280917E028823C1F387
:1009A000E1E0F0E0EC0FFD1FE10FF11D80830E94FC
:1009B000B90383EC99E00197F1F700C00000612FC3
:1009C00082E00E940C048AE20E94B90387EA91E661
:1009D0000197F1F700C000001F5F1430B0F26C2FD8
:1009E0006F5F81E290E00E94DD0160E081E190E0D4
:1009F0000E94DD010E9402048DEA90E00E94EF0354
:100A000087EA91E60197F1F700C000000E94020416
:100A100004C08AE190E00E94FB0110927E020E94D5
:100A2000020488EB90E00E94EF0360E082E00E9405
:100A30000C0483EC90E00E94EF039FE32DE083E041
:100A4000915020408040E1F700C000000E94020465
:100A50008DEC90E00E94EF0360E082E00E940C04C5
:100A60008FEF89838A838B838C8310E028C0109258
:100A70007E0204C08EE792E00E94550280917E02C1
:100A80008823C1F3E1E0F0E0EC0FFD1FE10FF11D61
:100A900080830E94B90383EC99E00197F1F700C0CD
:100AA0000000612F82E00E940C048AE20E94B903D8
:100AB00087EA91E60197F1F700C000001F5F14304C
:100AC000B0F26C2F6F5F81EB90E00E94DD0187EA4E
:100AD00091E60197F1F700C000000E94020481E254
:100AE00090E00E94FB01082F10E081EB90E00E9453
:100AF000FB0144E0B80190E00E943C04813009F021
:100B000058C288ED90E00E94EF0387EA91E60197D2
:100B1000F1F700C000000E94020480EE90E00E9405
:100B2000EF0360E082E00E940C0480EF90E00E94FE
:100B3000EF0310927E0204C08EE792E00E945502FD
:100B400080917E028823C1F3823309F457C018F4E0
:100B5000813341F0ECC0833309F496C0843309F447
:100B6000D8C0E5C00E94020481E091E00E94EF033A
:100B700087E893E10197F1F700C0000010927E0230
:100B800004C08EE792E00E94550280917E02882385
:100B9000C1F30E94020480917E028A32B1F460E0C7
:100BA00070E080E090E00E941E048DE091E00E94E1
:100BB000EF039FE72AE186E0915020408040E1F773
:100BC00000C000000E940204A8CF803309F0AFC02B
:100BD00060E070E080E090E00E942D0488E191E008
:100BE0000E94EF039FE72AE186E091502040804079
:100BF000E1F700C000000E9402048FCF0E940204AF
:100C000081E091E00E94EF0387E893E10197F1F71B
:100C100000C0000010927E0204C08EE792E00E94A5
:100C2000550280917E028823C1F30E9402048091C4
:100C30007E028A3299F462E070E083E090E00E94E4
:100C40001E0481E291E00E94EF038FE493EC019790
:100C5000F1F700C000000E9402045FCF803309F06A
:100C600066C062E070E083E090E00E942D048CE2B8
:100C700091E00E94EF038FE493EC0197F1F700C03D
:100C800000000E94020449CF0E94020481E091E02A
:100C90000E94EF0387E893E10197F1F700C000009D
:100CA00010927E0204C08EE792E00E94550280916D
:100CB0007E028823C1F30E94020480917E028A3260
:100CC00099F462E070E080E090E00E941E0485E309
:100CD00091E00E94EF038FE493EC0197F1F700C0DD
:100CE00000000E94020419CF803309F562E070E031
:100CF00080E090E00E942D0480E491E00E94EF03E8
:100D00008FE493EC0197F1F700C000000E94020409
:100D100004CF0E94020489E491E00E94EF0360E0A6
:100D200082E00E940C0489E591E00E94EF0310929A
:100D30007E0204C08EE792E00E94550280917E02FE
:100D40008823C1F3853321F0873309F447C065CE8A
:100D50000E94020481E091E00E94EF0387E893E1A2
:100D60000197F1F700C0000010927E0204C08EE7E8
:100D700092E00E94550280917E028823C1F30E9476
:100D8000020480917E028A3299F463E070E080E090
:100D900090E00E941E0484E691E00E94EF038FE43D
:100DA00093EC0197F1F700C000000E940204B5CE59
:100DB000803309F032CE63E070E080E090E00E9482
:100DC0002D048FE691E00E94EF038FE493EC0197EE
:100DD000F1F700C000000E9402049FCE0E940204AE
:100DE00088E791E00E94EF0387E893E10197F1F72C
:100DF00000C0000010927E0204C08EE792E00E94C4
:100E0000550280917E028823C1F3813309F46DC0BD
:100E1000823309F46FC001CE10927E020E94020458
:100E200089E891E00E94EF036BE081E00E940C04EE
:100E30008FE493EC0197F1F700C0000004C08EE747
:100E400092E00E94550280917E028823C1F38FE4D4
:100E500093EC0197F1F700C0000080917E020E94A0
:100E6000B90380917E0280538093830210927E02A8
:100E700004C08EE792E00E94550280917E02882392
:100E8000C1F38FE493EC0197F1F700C0000080916B
:100E90007E020E94B90380917E0280538093820279
:100EA00090918302990F292F220F220F920F890F01
:100EB000809387029FE72AE186E09150204080409E
:100EC000E1F700C000000E94020485E991E00E9461
:100ED000EF039FE72AE186E0915020408040E1F750
:100EE00000C000000E94020479CF8091870288230D
:100EF00009F492CF0E94020464E872E081E00E944B
:100F000062002091840230918502A8E8B3E10E943A
:100F1000560ADC01CB01072E7AE0B695A795979586
:100F200087957A95D1F7702D2DEC829F612D112434
:100F30006695669566956093810280918702861713
:100F4000F8F49FE72AE186E0915020408040E1F7E5
:100F500000C000008EE991E00E94EF039FE52AEEB9
:100F600080E0915020408040E1F700C000000E94E6
:100F700002048FE493EC0197F1F700C000002ECF3C
:100F8000681708F04ACD8CEA91E00E94EF039FEBCE
:100F900027E289E0915020408040E1F700C0000046
:100FA0000E9402048FE493EC0197F1F700C0000067
:100FB00015CF811132CD8DEB91E00E94EF039FEFB1
:100FC00028E08DE3915020408040E1F700C0000010
:100FD0000E94020489EC91E00E94EF0380917C0260
:100FE00090917D02019690937D0280937C020397FD
:100FF00009F013CD41E067E082E00E94760041E015
:1010000067E082E00E94EB0008CD813309F041C126
:101010000E94020488EB90E00E94EF0360E082E00F
:101020000E940C0484ED91E00E94EF0360E875E2F9
:1010300080E090E00E94EB098FED91E00E94210A90
:101040000E94190A823309F442C018F4813341F036
:10105000F7CF833309F472C0843309F4A6C0F0CF0C
:101060000E94190A182F8EEF91E00E94210A103376
:10107000C1F0113329F760E070E080E090E00E9459
:101080001E048DE091E00E94EF039FE72AE186E0D5
:10109000915020408040E1F700C000000E9402040F
:1010A000CBCF60E070E080E090E00E942D0489E00A
:1010B00092E00E94EF039FE72AE186E091502040F2
:1010C0008040E1F700C000000E940204B5CF0E94FA
:1010D000190A182F8EEF91E00E94210A1033C1F0F7
:1010E000113361F562E070E083E090E00E941E043D
:1010F00081E291E00E94EF039FE72AE186E09150B0
:1011000020408040E1F700C000000E94020494CF1C
:1011100062E070E083E090E00E942D0485E192E0BF
:101120000E94EF039FE72AE186E091502040804033
:10113000E1F700C000000E9402047ECF0E94190A5D
:10114000182F8EEF91E00E94210A1033C1F0113365
:1011500061F562E070E080E090E00E941E0485E3AB
:1011600091E00E94EF039FE72AE186E09150204042
:101170008040E1F700C000000E9402045DCF62E001
:1011800070E080E090E00E942D0481E292E00E94F5
:10119000EF039FE72AE186E0915020408040E1F78D
:1011A00000C000000E94020447CF0E94190A182FB5
:1011B0008DE292E00E94210A153319F01633C9F12D
:1011C0003FCF0E94190A182F8EEF91E00E94210A4A
:1011D0001033C9F0113309F033CF63E070E080E0E1
:1011E00090E00E941E0484E691E00E94EF039FE7D6
:1011F0002AE186E0915020408040E1F700C00000E5
:101200000E94020419CF63E070E080E090E00E9449
:101210002D0485E492E00E94EF039FE72AE186E037
:10122000915020408040E1F700C000000E9402047D
:1012300003CF0E94190A182F81E592E00E94210A2B
:101240001033A9F0113309F0FBCE0E94C80180E6EB
:1012500092E00E94EF039FE72AE186E09150204050
:101260008040E1F700C000000E940204E5CE8DE658
:1012700092E00E94EF030E94D1019FE72AE186E0FD
:10128000915020408040E1F700C000000E9402041D
:10129000D3CE80E090E00F900F900F900F90DF91F1
:1012A000CF911F910F9108958FB58E7F8FBD8FB510
:1012B00082608FBD8EB588608EBD8EB580618EBD1B
:1012C0008FB58F7B8FBD8FB580688FBD81B38062F6
:1012D00081BB87E893E197BD86BD08958EB5816097
:1012E0008EBD8EB582608EBD8EB58B7F8EBD08950E
:1012F0009BBD8ABD08958CE080B981B18E7F81B994
:1013000081B18D7F81B986B7806486BF86B78460DE
:1013100086BF089586B7806286BF86B7806886BF1D
:1013200006B607FEFDCF81B1887F8830E1F70895CA
:1013300086B7806286BF86B7806886BF06B607FE1E
:10134000FDCF81B1887F8031E1F7089586B7806154
:1013500086BF86B7806886BF0895880F83B983B13A
:101360008E7F83B986B78F7D86BF86B7806886BF3C
:1013700006B607FEFDCF81B1887F8831E1F7089579
:10138000880F83B983B1816083B986B78F7D86BFAB
:1013900086B7806886BF06B607FEFDCF81B1887F1D
:1013A0008034E1F7089583B986B7806886BF06B6B2
:1013B00007FEFDCF81B1887F8832E1F7089586B7B7
:1013C000806886BF06B607FEFDCF81B1887F803575
:1013D000E1F783B108952AB128612AB920B52668BA
:1013E00020BDDC01CB01880F991FAA1FBB1F880FEE
:1013F000991FAA1FBB1F9C01AD01220F331F441F61
:10140000551F220F331F441F551F60E072E18AE70A
:1014100090E00E94340A8FEF820F89B9DA01C90186
:101420000197A109B109892F9A2FAB2FBB2780BD46
:1014300008955F9BFECF8CB108955D9BFECF8CB964
:1014400008950F931F93CF938C01C0E003C00E94B7
:101450001D0ACF5FF801EC0FF11D80818111F7CFDC
:10146000CF911F910F910895A1E21A2EAA1BBB1BC9
:10147000FD010DC0AA1FBB1FEE1FFF1FA217B30760
:10148000E407F50720F0A21BB30BE40BF50B661F76
:10149000771F881F991F1A9469F76095709580953A
:1014A00090959B01AC01BD01CF010895A29FB001B1
:1014B000B39FC001A39F700D811D1124911DB29F88
:0E14C000700D811D1124911D0895F894FFCF29
:1014CE003132334134353642373839432A302344AA
:1014DE0057656C636F6D6520746F20736D617274E8
:1014EE0000486F6D652053797374656D00313E4110
:1014FE00444D494E20323E47554553540053657472
:10150E007570004E657720506173733A00506173A9
:10151E00732053617665640057656C636F6D65204B
:10152E00746F0055736572204D6F64650057726954
:10153E0074652070617373004C6F67696E2E2E0098
:10154E00313E4C616D703120323E4C616D70320017
:10155E00333E4C616D703320343E4D6F72654F508B
:10156E00004F4E3E4F4E20303E4F4646004C4544B7
:10157E0031204F4E2E2E2E004C454431204F6666A4
:10158E00004C454432204F4E2E2E2E004C454432F8
:10159E00204F6666004C454433204F4E2E2E2E00B3
:1015AE004C454433204F666600353E4C616D7034B9
:1015BE0020363E4C616D703500373E416972436F87
:1015CE006E6420004C454434204F4E2E2E2E004C7F
:1015DE00454434204F666600313E53455420323E1A
:1015EE004F4E20333E4F4646005365742054656D72
:1015FE00703A5F5F0054656D7020736574004149E9
:10160E005220434F4E204953204F4E004149522005
:10161E00434F4E2046616E204D6F64650077726FAA
:10162E006E67207061737321005472792041676177
:10163E00696E210041444D494E204D6F6465003165
:10164E003E4C414D503120323E4C414D50322033B4
:10165E003E4C414D503320343E4D4F524500313EAD
:10166E004F4E20303E4F4646004C454431204F46AB
:10167E00462E2E2E004C454432204F46462E2E2E00
:10168E00004C454433204F46462E2E2E00353E4C00
:10169E00414D503420363E444F4F5220373E414943
:1016AE0052436F6E004C454434204F46462E2E2E2C
:1016BE0000313E4F70656E20303E636C6F73650077
:1016CE00444F4F52204F50454E2E2E2E00444F4F1A
:0C16DE005220434C4F53452E2E2E00008E
:00000001FF
